{
  "contractName": "Splitter",
  "abi": [
    {
      "inputs": [
        {
          "name": "_address1",
          "type": "address"
        },
        {
          "name": "_address2",
          "type": "address"
        },
        {
          "name": "_address3",
          "type": "address"
        }
      ],
      "payable": false,
      "stateMutability": "nonpayable",
      "type": "constructor"
    },
    {
      "constant": true,
      "inputs": [],
      "name": "getOtherUsers",
      "outputs": [
        {
          "name": "address_a",
          "type": "address"
        },
        {
          "name": "address_b",
          "type": "address"
        }
      ],
      "payable": false,
      "stateMutability": "view",
      "type": "function"
    },
    {
      "constant": false,
      "inputs": [],
      "name": "sendEther",
      "outputs": [],
      "payable": true,
      "stateMutability": "payable",
      "type": "function"
    },
    {
      "constant": false,
      "inputs": [],
      "name": "splitBalance",
      "outputs": [
        {
          "name": "success",
          "type": "bool"
        }
      ],
      "payable": false,
      "stateMutability": "nonpayable",
      "type": "function"
    },
    {
      "constant": true,
      "inputs": [],
      "name": "getUserBalance",
      "outputs": [
        {
          "name": "userBalance",
          "type": "uint256"
        }
      ],
      "payable": false,
      "stateMutability": "view",
      "type": "function"
    },
    {
      "constant": true,
      "inputs": [],
      "name": "getSplitterBalance",
      "outputs": [
        {
          "name": "splitterBalance",
          "type": "uint256"
        }
      ],
      "payable": false,
      "stateMutability": "view",
      "type": "function"
    }
  ],
  "bytecode": "0x608060405234801561001057600080fd5b50604051606080610b53833981018060405281019080805190602001909291908051906020019092919080519060200190929190505050604080519081016040528060011515815260200160008152506000808573ffffffffffffffffffffffffffffffffffffffff1673ffffffffffffffffffffffffffffffffffffffff16815260200190815260200160002060008201518160000160006101000a81548160ff0219169083151502179055506020820151816001015590505082600160006003811015156100dc57fe5b0160006101000a81548173ffffffffffffffffffffffffffffffffffffffff021916908373ffffffffffffffffffffffffffffffffffffffff160217905550604080519081016040528060011515815260200160008152506000808473ffffffffffffffffffffffffffffffffffffffff1673ffffffffffffffffffffffffffffffffffffffff16815260200190815260200160002060008201518160000160006101000a81548160ff02191690831515021790555060208201518160010155905050816001806003811015156101af57fe5b0160006101000a81548173ffffffffffffffffffffffffffffffffffffffff021916908373ffffffffffffffffffffffffffffffffffffffff160217905550604080519081016040528060011515815260200160008152506000808373ffffffffffffffffffffffffffffffffffffffff1673ffffffffffffffffffffffffffffffffffffffff16815260200190815260200160002060008201518160000160006101000a81548160ff02191690831515021790555060208201518160010155905050806001600260038110151561028357fe5b0160006101000a81548173ffffffffffffffffffffffffffffffffffffffff021916908373ffffffffffffffffffffffffffffffffffffffff16021790555050505061087f806102d46000396000f30060806040526004361061006d576000357c0100000000000000000000000000000000000000000000000000000000900463ffffffff1680630e29df221461007257806321c39fb91461007c5780633b91f9ca146100a7578063449c847c14610131578063b7013dc114610160575b600080fd5b61007a61018b565b005b34801561008857600080fd5b506100916102b7565b6040518082815260200191505060405180910390f35b3480156100b357600080fd5b506100bc610418565b604051808373ffffffffffffffffffffffffffffffffffffffff1673ffffffffffffffffffffffffffffffffffffffff1681526020018273ffffffffffffffffffffffffffffffffffffffff1673ffffffffffffffffffffffffffffffffffffffff1681526020019250505060405180910390f35b34801561013d57600080fd5b50610146610585565b604051808215151515815260200191505060405180910390f35b34801561016c57600080fd5b506101756107b0565b6040518082815260200191505060405180910390f35b6000806000806000803373ffffffffffffffffffffffffffffffffffffffff1673ffffffffffffffffffffffffffffffffffffffff16815260200190815260200160002060000160009054906101000a900460ff1615156101eb57600080fd5b6101f3610418565b80945081955050506000808573ffffffffffffffffffffffffffffffffffffffff1673ffffffffffffffffffffffffffffffffffffffff168152602001908152602001600020915060023481151561024757fe5b0482600101540182600101819055506000808473ffffffffffffffffffffffffffffffffffffffff1673ffffffffffffffffffffffffffffffffffffffff16815260200190815260200160002090506002348115156102a257fe5b04816001015401816001018190555050505050565b6000806000600160026003811015156102cc57fe5b0160009054906101000a900473ffffffffffffffffffffffffffffffffffffffff1673ffffffffffffffffffffffffffffffffffffffff1673ffffffffffffffffffffffffffffffffffffffff1681526020019081526020016000206001015460008060018060038110151561033e57fe5b0160009054906101000a900473ffffffffffffffffffffffffffffffffffffffff1673ffffffffffffffffffffffffffffffffffffffff1673ffffffffffffffffffffffffffffffffffffffff16815260200190815260200160002060010154600080600160006003811015156103b157fe5b0160009054906101000a900473ffffffffffffffffffffffffffffffffffffffff1673ffffffffffffffffffffffffffffffffffffffff1673ffffffffffffffffffffffffffffffffffffffff168152602001908152602001600020600101540101905090565b6000806000806000803373ffffffffffffffffffffffffffffffffffffffff1673ffffffffffffffffffffffffffffffffffffffff16815260200190815260200160002060000160009054906101000a900460ff16151561047857600080fd5b600090505b60038110156104fb573373ffffffffffffffffffffffffffffffffffffffff166001826003811015156104ac57fe5b0160009054906101000a900473ffffffffffffffffffffffffffffffffffffffff1673ffffffffffffffffffffffffffffffffffffffff1614156104ee578091505b808060010191505061047d565b600160036001840181151561050c57fe5b0660038110151561051957fe5b0160009054906101000a900473ffffffffffffffffffffffffffffffffffffffff16600160036002850181151561054c57fe5b0660038110151561055957fe5b0160009054906101000a900473ffffffffffffffffffffffffffffffffffffffff169350935050509091565b6000806000806000803373ffffffffffffffffffffffffffffffffffffffff1673ffffffffffffffffffffffffffffffffffffffff16815260200190815260200160002060000160009054906101000a900460ff1615156105e557600080fd5b6105ed610418565b80935081945050506000803373ffffffffffffffffffffffffffffffffffffffff1673ffffffffffffffffffffffffffffffffffffffff16815260200190815260200160002060010154905060008060003373ffffffffffffffffffffffffffffffffffffffff1673ffffffffffffffffffffffffffffffffffffffff1681526020019081526020016000206001018190555060028181151561068c57fe5b046000808573ffffffffffffffffffffffffffffffffffffffff1673ffffffffffffffffffffffffffffffffffffffff16815260200190815260200160002060010154016000808573ffffffffffffffffffffffffffffffffffffffff1673ffffffffffffffffffffffffffffffffffffffff1681526020019081526020016000206001018190555060028181151561072157fe5b046000808473ffffffffffffffffffffffffffffffffffffffff1673ffffffffffffffffffffffffffffffffffffffff16815260200190815260200160002060010154016000808473ffffffffffffffffffffffffffffffffffffffff1673ffffffffffffffffffffffffffffffffffffffff1681526020019081526020016000206001018190555050505090565b60008060003373ffffffffffffffffffffffffffffffffffffffff1673ffffffffffffffffffffffffffffffffffffffff16815260200190815260200160002060000160009054906101000a900460ff16151561080c57600080fd5b6000803373ffffffffffffffffffffffffffffffffffffffff1673ffffffffffffffffffffffffffffffffffffffff168152602001908152602001600020600101549050905600a165627a7a72305820c27f3e1db37d592be89d78b5dca7741b4a44aea048db1214bc6c28694ff3ff590029",
  "source": "pragma solidity ^0.4.23;\n\ncontract Splitter {\n\n    struct user{\n        bool isMember;\n        uint balance;\n    }\n\n    mapping(address => user) users;\n    address[3] addresses;\n    modifier senderIsUser(){\n        require(users[msg.sender].isMember);\n        _;\n    }\n\n    constructor(address _address1, address _address2, address _address3) public {\n        users[_address1] = user(true,0);\n        addresses[0] = _address1;\n        users[_address2] = user(true,0);\n        addresses[1] = _address2;\n        users[_address3] = user(true,0);\n        addresses[2] = _address3;\n    }\n\n    function getOtherUsers() public view senderIsUser returns (address address_a, address address_b) {\n        uint index;\n        for (uint i=0;i<3;i++){\n            if (addresses[i] == msg.sender) {\n                index = i;\n            }\n        }\n        return (addresses[(index+1)%3],addresses[(index+2)%3]);\n    }\n\n    function sendEther() public payable senderIsUser{\n\n        address a1;\n        address a2 ;\n        (a1,a2) = getOtherUsers();\n        user storage u1  = users[a1];\n        u1.balance = u1.balance + msg.value/2;\n        user storage u2  = users[a2];\n        u2.balance = u2.balance + msg.value/2;\n    }\n\n    function splitBalance() public senderIsUser returns(bool success){\n        address a1;\n        address a2;\n        (a1,a2) = getOtherUsers();\n        uint cur_bal = users[msg.sender].balance;\n        users[msg.sender].balance = 0;\n        users[a1].balance = users[a1].balance  + cur_bal/2;\n        users[a2].balance = users[a2].balance  + cur_bal/2;\n    }\n\n    function getUserBalance() view public senderIsUser returns(uint userBalance){\n        return users[msg.sender].balance;\n    }\n\n    function getSplitterBalance() view public returns(uint splitterBalance){\n        return users[addresses[0]].balance + users[addresses[1]].balance + users[addresses[2]].balance;\n    }\n}\n",
  "sourcePath": "/home/giorgos/Nextcloud/B9Labs/b9labs_eth_splitter/splitter/contracts/Splitter.sol",
  "compiler": {
    "name": "solc",
    "version": "0.4.23+commit.124ca40d.Emscripten.clang"
  },
  "schemaVersion": "2.0.0",
  "updatedAt": "2018-10-08T19:29:12.962Z"
}