{
  "contractName": "Splitter",
  "abi": [
    {
      "inputs": [
        {
          "name": "_address1",
          "type": "address"
        },
        {
          "name": "_address2",
          "type": "address"
        },
        {
          "name": "_address3",
          "type": "address"
        }
      ],
      "payable": false,
      "stateMutability": "nonpayable",
      "type": "constructor"
    },
    {
      "constant": false,
      "inputs": [],
      "name": "sendwei",
      "outputs": [],
      "payable": true,
      "stateMutability": "payable",
      "type": "function"
    },
    {
      "constant": false,
      "inputs": [],
      "name": "splitBalance",
      "outputs": [
        {
          "name": "success",
          "type": "bool"
        }
      ],
      "payable": false,
      "stateMutability": "nonpayable",
      "type": "function"
    },
    {
      "constant": true,
      "inputs": [],
      "name": "getUserBalance",
      "outputs": [
        {
          "name": "userBalance",
          "type": "uint256"
        }
      ],
      "payable": false,
      "stateMutability": "view",
      "type": "function"
    },
    {
      "constant": true,
      "inputs": [],
      "name": "getSplitterBalance",
      "outputs": [
        {
          "name": "splitterBalance",
          "type": "uint256"
        }
      ],
      "payable": false,
      "stateMutability": "view",
      "type": "function"
    },
    {
      "constant": false,
      "inputs": [],
      "name": "withdrawBalance",
      "outputs": [
        {
          "name": "succes",
          "type": "bool"
        }
      ],
      "payable": false,
      "stateMutability": "nonpayable",
      "type": "function"
    }
  ],
  "bytecode": "0x608060405234801561001057600080fd5b50604051606080610c33833981018060405281019080805190602001909291908051906020019092919080519060200190929190505050604080519081016040528060011515815260200160008152506000808573ffffffffffffffffffffffffffffffffffffffff1673ffffffffffffffffffffffffffffffffffffffff16815260200190815260200160002060008201518160000160006101000a81548160ff0219169083151502179055506020820151816001015590505082600160006003811015156100dc57fe5b0160006101000a81548173ffffffffffffffffffffffffffffffffffffffff021916908373ffffffffffffffffffffffffffffffffffffffff160217905550604080519081016040528060011515815260200160008152506000808473ffffffffffffffffffffffffffffffffffffffff1673ffffffffffffffffffffffffffffffffffffffff16815260200190815260200160002060008201518160000160006101000a81548160ff02191690831515021790555060208201518160010155905050816001806003811015156101af57fe5b0160006101000a81548173ffffffffffffffffffffffffffffffffffffffff021916908373ffffffffffffffffffffffffffffffffffffffff160217905550604080519081016040528060011515815260200160008152506000808373ffffffffffffffffffffffffffffffffffffffff1673ffffffffffffffffffffffffffffffffffffffff16815260200190815260200160002060008201518160000160006101000a81548160ff02191690831515021790555060208201518160010155905050806001600260038110151561028357fe5b0160006101000a81548173ffffffffffffffffffffffffffffffffffffffff021916908373ffffffffffffffffffffffffffffffffffffffff16021790555050505061095f806102d46000396000f30060806040526004361061006d576000357c0100000000000000000000000000000000000000000000000000000000900463ffffffff16806321c39fb914610072578063449c847c1461009d5780635fd8c710146100cc578063b7013dc1146100fb578063c45a209214610126575b600080fd5b34801561007e57600080fd5b50610087610130565b6040518082815260200191505060405180910390f35b3480156100a957600080fd5b506100b2610291565b604051808215151515815260200191505060405180910390f35b3480156100d857600080fd5b506100e16104c0565b604051808215151515815260200191505060405180910390f35b34801561010757600080fd5b506101106105f7565b6040518082815260200191505060405180910390f35b61012e61069a565b005b60008060006001600260038110151561014557fe5b0160009054906101000a900473ffffffffffffffffffffffffffffffffffffffff1673ffffffffffffffffffffffffffffffffffffffff1673ffffffffffffffffffffffffffffffffffffffff168152602001908152602001600020600101546000806001806003811015156101b757fe5b0160009054906101000a900473ffffffffffffffffffffffffffffffffffffffff1673ffffffffffffffffffffffffffffffffffffffff1673ffffffffffffffffffffffffffffffffffffffff168152602001908152602001600020600101546000806001600060038110151561022a57fe5b0160009054906101000a900473ffffffffffffffffffffffffffffffffffffffff1673ffffffffffffffffffffffffffffffffffffffff1673ffffffffffffffffffffffffffffffffffffffff168152602001908152602001600020600101540101905090565b6000806000806000803373ffffffffffffffffffffffffffffffffffffffff1673ffffffffffffffffffffffffffffffffffffffff16815260200190815260200160002060000160009054906101000a900460ff1615156102f157600080fd5b6102f96107c6565b80935081945050506000803373ffffffffffffffffffffffffffffffffffffffff1673ffffffffffffffffffffffffffffffffffffffff16815260200190815260200160002060010154905060008060003373ffffffffffffffffffffffffffffffffffffffff1673ffffffffffffffffffffffffffffffffffffffff1681526020019081526020016000206001018190555060028181151561039857fe5b046000808573ffffffffffffffffffffffffffffffffffffffff1673ffffffffffffffffffffffffffffffffffffffff16815260200190815260200160002060010154016000808573ffffffffffffffffffffffffffffffffffffffff1673ffffffffffffffffffffffffffffffffffffffff1681526020019081526020016000206001018190555060028181151561042d57fe5b046000808473ffffffffffffffffffffffffffffffffffffffff1673ffffffffffffffffffffffffffffffffffffffff16815260200190815260200160002060010154016000808473ffffffffffffffffffffffffffffffffffffffff1673ffffffffffffffffffffffffffffffffffffffff168152602001908152602001600020600101819055506001935050505090565b6000806000803373ffffffffffffffffffffffffffffffffffffffff1673ffffffffffffffffffffffffffffffffffffffff16815260200190815260200160002060000160009054906101000a900460ff16151561051d57600080fd5b6000803373ffffffffffffffffffffffffffffffffffffffff1673ffffffffffffffffffffffffffffffffffffffff16815260200190815260200160002060010154905060008060003373ffffffffffffffffffffffffffffffffffffffff1673ffffffffffffffffffffffffffffffffffffffff168152602001908152602001600020600101819055503373ffffffffffffffffffffffffffffffffffffffff166108fc829081150290604051600060405180830381858888f193505050501580156105ee573d6000803e3d6000fd5b50600191505090565b60008060003373ffffffffffffffffffffffffffffffffffffffff1673ffffffffffffffffffffffffffffffffffffffff16815260200190815260200160002060000160009054906101000a900460ff16151561065357600080fd5b6000803373ffffffffffffffffffffffffffffffffffffffff1673ffffffffffffffffffffffffffffffffffffffff16815260200190815260200160002060010154905090565b6000806000806000803373ffffffffffffffffffffffffffffffffffffffff1673ffffffffffffffffffffffffffffffffffffffff16815260200190815260200160002060000160009054906101000a900460ff1615156106fa57600080fd5b6107026107c6565b80945081955050506000808573ffffffffffffffffffffffffffffffffffffffff1673ffffffffffffffffffffffffffffffffffffffff168152602001908152602001600020915060023481151561075657fe5b0482600101540182600101819055506000808473ffffffffffffffffffffffffffffffffffffffff1673ffffffffffffffffffffffffffffffffffffffff16815260200190815260200160002090506002348115156107b157fe5b04816001015401816001018190555050505050565b6000806000806000803373ffffffffffffffffffffffffffffffffffffffff1673ffffffffffffffffffffffffffffffffffffffff16815260200190815260200160002060000160009054906101000a900460ff16151561082657600080fd5b600090505b60038110156108a9573373ffffffffffffffffffffffffffffffffffffffff1660018260038110151561085a57fe5b0160009054906101000a900473ffffffffffffffffffffffffffffffffffffffff1673ffffffffffffffffffffffffffffffffffffffff16141561089c578091505b808060010191505061082b565b60016003600184018115156108ba57fe5b066003811015156108c757fe5b0160009054906101000a900473ffffffffffffffffffffffffffffffffffffffff1660016003600285018115156108fa57fe5b0660038110151561090757fe5b0160009054906101000a900473ffffffffffffffffffffffffffffffffffffffff1693509350505090915600a165627a7a72305820f7d8be7722280e1aae2bca972c8d832b0894ead0012d9a5522ed00583a5fb5160029",
  "source": "pragma solidity ^0.4.23;\n\ncontract Splitter {\n\n    struct user{ // struct to represent users\n        bool isMember;\n        uint balance;\n    }\n\n    mapping(address => user) users; //mapping to hold users\n    address[3] addresses; //array to be able to enumerate users\n\n    modifier senderIsUser(){ //modifier to restrice some functions only to users\n        require(users[msg.sender].isMember);\n        _;\n    }\n\n    //constructor gets the three addresses and creates the contract\n    // It populates both the array and the mapping\n    // It sets initial balance equal to zero for all users\n    constructor(address _address1, address _address2, address _address3) public {\n        users[_address1] = user(true,0);\n        addresses[0] = _address1;\n        users[_address2] = user(true,0);\n        addresses[1] = _address2;\n        users[_address3] = user(true,0);\n        addresses[2] = _address3;\n    }\n\n    // helper function to retrieve the other two user with regard to the function caller\n    // This is internal as there is no need to be called outside of the contract\n    function getOtherUsers() internal view senderIsUser returns (address address_a, address address_b) {\n        uint index;\n        for (uint i=0;i<3;i++){\n            if (addresses[i] == msg.sender) {\n                index = i;\n            }\n        }\n        return (addresses[(index+1)%3],addresses[(index+2)%3]);\n    }\n\n    // this function enables a user of the contract to send wei to be splitted\n    // it is payable and only restricted to the three users\n    function sendwei() public payable senderIsUser{\n\n        address a1;\n        address a2 ;\n        (a1,a2) = getOtherUsers();\n        user storage u1  = users[a1];\n        u1.balance = u1.balance + msg.value/2;\n        user storage u2  = users[a2];\n        u2.balance = u2.balance + msg.value/2;\n    }\n\n    // it enables the calling user to split his current balnce to the other two users\n    // it is also restricted to users only\n    function splitBalance() public senderIsUser returns(bool success){\n        address a1;\n        address a2;\n        (a1,a2) = getOtherUsers();\n        uint cur_bal = users[msg.sender].balance;\n        users[msg.sender].balance = 0;\n        users[a1].balance = users[a1].balance  + cur_bal/2;\n        users[a2].balance = users[a2].balance  + cur_bal/2;\n        return true;\n    }\n\n    // this function returns the balance of the caller in the contracts\n    // it is restricted to users only and it is a view function\n    function getUserBalance() view public senderIsUser returns(uint userBalance){\n        return users[msg.sender].balance;\n    }\n\n    // this function returns the global balance for the Splitter contract\n    // it is a view function\n    function getSplitterBalance() view public returns(uint splitterBalance){\n        return users[addresses[0]].balance + users[addresses[1]].balance + users[addresses[2]].balance;\n    }\n\n    // this enable one of the user to withdraw its getBalance\n    // it is restricted to users only\n    function withdrawBalance() public senderIsUser returns(bool succes){\n        uint amount = users[msg.sender].balance;\n        users[msg.sender].balance = 0;\n        msg.sender.transfer(amount);\n        return true;\n    }\n}\n",
  "sourcePath": "/home/giorgos/Nextcloud/B9Labs/b9labs_eth_splitter/splitter/contracts/Splitter.sol",
  "compiler": {
    "name": "solc",
    "version": "0.4.23+commit.124ca40d.Emscripten.clang"
  },
  "schemaVersion": "2.0.0",
  "updatedAt": "2018-10-09T14:43:34.802Z"
}